:100000000C942A000C9434000C9434000C943400AA
:100010000C9434000C9434000C9434000C94340090
:100020000C9434000C9434000C9434000C94340080
:100030000C9434000C9434000C9434000C94340070
:100040000C9434000C9434000C9434000C94340060
:100050000C94340011241FBECFE5D4E0DEBFCDBF29
:100060000E9436000C9450000C9400008FEF87BB68
:1000700081E08ABB4FEF29E130E0C89BFECF48BB4F
:1000800088E893E1F9013197F1F70197D9F718BAA8
:1000900088E893E1F9013197F1F70197D9F7EDCFAE
:0400A000F894FFCF02
:00000001FF
