:100000000C942A000C9434000C9434000C943400AA
:100010000C9434000C9434000C9434000C94340090
:100020000C9434000C9434000C9434000C94340080
:100030000C9434000C9434000C9434000C94340070
:100040000C9434000C9434000C9434000C94340060
:100050000C94340011241FBECFE5D4E0DEBFCDBF29
:100060000E943B000C945F000C94000083B78560F5
:1000700083BF12BE089584E084BB8FE087BB83B743
:10008000856083BF12BE49E036E023E09CE083B385
:100090008823E9F382B7853010F098BB12BE82B78F
:1000A000853010F028BB12BE82B7853010F038BB07
:1000B00012BE82B7853058F348BB12BEE8CFF89421
:0200C000FFCF70
:00000001FF
