:0C0000000C9465000C9400000C940000AF
:10000C000C9400000C9400000C9400000C94000064
:10001C000C9400000C9400000C9400000C94000054
:10002C000C9400000C9400000C9400000C94000044
:10003C000C9400000C9400000C9400000C94000034
:10004C000C9400000C940000FFFFFEFDFBF737380A
:10005C00392F3435362A3132332D00303D2B3132A5
:10006C00333456414C4944212077656C636F6D6580
:10007C000057524F4E47212100456E746572205037
:10008C00617373776F72643A000080C002000800DD
:10009C00540004008702560010008B025A00040022
:1000AC009B026A000F0060026E0008006F027D0068
:1000BC001000770285000200A30296000000F8945D
:1000CC00EE27ECBBF1E0FBBFEBBFE5BF8DE0A2E0A0
:1000DC00BB27ED938A95E9F780E098E0A0E6ED93D5
:1000EC000197E9F7E8E9F0E085919591009761F0C7
:1000FC00A591B59105901590BF01F00105900D9259
:10010C000197E1F7FB01F0CFEFE5EDBFE8E0EEBFC3
:10011C00C0E6D2E00C941B01E1E07E2E5524E3E016
:10012C00E51578F0E52DF0E0E556FD4FA081E52DC5
:10013C00F0E0E156FD4FE081EA1709F07724539483
:10014C00EECFE1E0E71559F4AFD0A0E6B2E0CDD0A8
:10015C00C09AA8EEB3E00E94DC01C0980AC0A4D0FB
:10016C00AFE6B2E0C2D0C79AA0EDB7E00E94DC01C6
:10017C00C79808955524E3E0E51508F455C0E52D1E
:10018C00F0E0E957FD4FE081E2BB849904C00E9486
:10019C00CA0188249924859905C00E94CA01E1E00E
:1001AC00F0E04F01869905C00E94CA01E2E0F0E040
:1001BC004F01879905C00E94CA01E3E0F0E04F01AE
:1001CC00EFEFFFEFE815F90569F1E3E0E51521F430
:1001DC0000240814090409F00DC066D0EFE9F2E020
:1001EC00FA93EA93E0E0EA93A4E0B0E00E94BA014B
:1001FC00442415C0A52DE4E0EA9FF001E80DF91D9B
:10020C00E557FD4F6080A62D5BD0E42DF0E0E15664
:10021C00FD4F60824394E4E0E41509F47DDFEFEFD9
:10022C00FFEF4F015394A7CF0895E1E8E7BBEFE050
:10023C00E1BBE0EFE2BBA0E169D0A7E7B2E055D0AB
:10024C00E0E0EA93A1E023D095DFFECFFFCFAA93A5
:10025C00EBB3EF70AE2FE881E07FEA2BEBBB8DE0C8
:10026C008A95F1F7DA9A8DE08A95F1F7DA988DE0B4
:10027C008A95F1F777C0AA93A881E9DFE881E29526
:10028C00E883A881E4DF85E88A95F1F76BC0AA932F
:10029C00E881F0E0ED55FD4FE081A981AE0FEBDF79
:1002AC00B980A88022960895A2E00E94CE01ACE00D
:1002BC00E2DFA1E00E94CE01E0E0AE2EBE2E08955A
:1002CC00AA93A881AA3011F0BD1448F0E0E0EA939B
:1002DC00A394AA2DDCDFA881AA3009F443C0B394FF
:1002EC00D89AA881C8DFD8983DC0BA93AA931A931C
:1002FC00A981BA81ED91A983BA831E2FE03019F040
:10030C00A12FDEDFF5CF188123960895AA93EAB3C7
:10031C00E06FEABBD29AD09AD19ADA98D898D99849
:10032C00D880E881E058E093A502E881E054E0939E
:10033C00A602A4E1B0E00E94DC010E94D4010E945C
:10034C00D4010E94D401A0E282DF88EC90E00197F6
:10035C00F1F7A8E290DFA4E08EDFA5E88CDFA6E041
:10036C008ADFA2DF21960895BA93AA93B981A88156
:10037C00109631F0FC81EB816A8161931197E9F75A
:10038C00EB81FC8125960895A2E3B0E00C94DC018E
:10039C000E944101A3E0B0E00C94DC01A0E30E94B8
:1003AC002D0188EC90E00197F1F70895109639F043
:1003BC0080ED97E00197F1F7A8951197C9F708958B
:00000001FF
