:0C0000000C944A000C9400000C940000CA
:10000C000C9400000C9400000C9400000C94000064
:10001C000C9400000C9400000C9400000C94000054
:10002C000C9400000C9400000C9400000C94000044
:10003C000C9400000C9400000C9400000C94000034
:10004C000C9400000C940000FFFFFEFDFBF737380A
:10005C00392F3435362A3132332D00303D2B456E55
:10006C007465723A000080C002000600540004005F
:10007C006702560010006B025A00070060026A000B
:10008C0002007B0272000000F894EE27ECBBF1E05A
:10009C00FBBFEBBFE5BF8DE0A2E0BB27ED938A95DC
:1000AC00E9F780E098E0A0E6ED930197E9F7E4E743
:1000BC00F0E085919591009761F0A591B59105902F
:1000CC001590BF01F00105900D920197E1F7FB012E
:1000DC00F0CFEFE5EDBFE8E0EEBFC0E6D2E00C9468
:1000EC007700E1E8E7BBEFE0E1BBE0EFE2BBA0E1CA
:1000FC00ADD0A0E6B2E099D0E0E0EA93A1E067D001
:10010C005524E3E0E51508F440C0E52DF0E0E9598D
:10011C00FD4FE081E2BB849904C00E945A01662421
:10012C007724859905C00E945A01E1E0F0E03F0177
:10013C00869905C00E945A01E2E0F0E03F018799E0
:10014C0005C00E945A01E3E0F0E03F01EFEFFFEF42
:10015C00E615F705C1F0E3E0E51521F400240614DB
:10016C00070409F002C040D00BC0A52DE4E0EA9FC3
:10017C00F001E60DF71DE559FD4F4080A42D40D050
:10018C00EFEFFFEF3F015394BCCFBACFFFCFAA9351
:10019C00EBB3EF70AE2FE881E07FEA2BEBBB8DE089
:1001AC008A95F1F7DA9A8DE08A95F1F7DA988DE075
:1001BC008A95F1F777C0AA93A881E9DFE881E295E7
:1001CC00E883A881E4DF85E88A95F1F76BC0AA93F0
:1001DC00E881F0E0E558FD4FE081A981AE0FEBDF3F
:1001EC009980888022960895A2E00E945E01ACE07E
:1001FC00E2DFA1E00E945E01E0E08E2E9E2E0895CB
:10020C00AA93A881AA3011F09B1448F0E0E0EA937D
:10021C008394A82DDCDFA881AA3009F443C0939401
:10022C00D89AA881C8DFD8983DC0BA93AA931A93DC
:10023C00A981BA81ED91A983BA831E2FE03019F000
:10024C00A12FDEDFF5CF188123960895AA93EAB388
:10025C00E06FEABBD29AD09AD19ADA98D898D9980A
:10026C00B880E881E058E0937D02E881E054E093A7
:10027C007E02A4E1B0E00E946C010E9464010E9425
:10028C0064010E946401A0E282DF88EC90E0019797
:10029C00F1F7A8E290DFA4E08EDFA5E88CDFA6E002
:1002AC008ADFA2DF21960895A2E3B0E00C946C01E2
:1002BC000E94E100A3E0B0E00C946C01A0E30E946A
:1002CC00CD0088EC90E00197F1F70895109639F085
:1002DC0080ED97E00197F1F7A8951197C9F708956C
:00000001FF
