:100000000C942A000C943F000C943F000C943F0089
:100010000C943F000C943F000C943F000C943F0064
:100020000C943F000C943F000C943F000C943F0054
:100030000C943F000C943F000C943F000C943F0044
:100040000C943F000C943F000C943F000C943F0034
:100050000C943F0011241FBECFE5D4E0DEBFCDBF1E
:1000600010E0A0E6B0E0E4E1F2E002C005900D92FD
:10007000A437B107D9F70E9465000C9408010C94CD
:10008000000091E099BF82BF85E083BF08958EB5DF
:100090008C608EBD1DBC1CBC82E19AE79BBD8ABDF5
:1000A00089B7806189BF789408951F920F920FB627
:1000B0000F9211248F931FBC959880EC8FBD8F9168
:1000C0000F900FBE0F901F9018952F923F924F9256
:1000D0005F926F927F928F929F92AF92BF92CF92D8
:1000E000DF92EF92FF920F931F93DF93CF93CDB7E1
:1000F000DEB766970FB6F894DEBF0FBECDBF8FEFA9
:1001000084BB81BBDE011196E0E6F0E084E1019062
:100110000D928150E1F787EF85BB81E089BF82ECCA
:1001200082BF85E083BFA1E0B0E021E030E03E8BFC
:100130002D8B6E010894C11CD11CF8EA4F2EF1E6FC
:100140005F2EE8EA6E2EE1E67E2E78EA872E71E6D3
:10015000972E6DEF262E58EAA52E51E6B52E4EEFBE
:10016000342E4EC087EF85BB808182BBC2010197D0
:10017000F1F72F5F3F4F32962A30310599F79BEF09
:1001800095BBFA01808182BBC3010197F1F76F5FD4
:100190007F4F4E5F5F4F1E8A1D8A6A30710549F09E
:1001A000ED89FE89EE0FFF1FEC0DFD1D20E030E014
:1001B000D9CF25BAF801808182BBC4010197F1F73C
:1001C0000894E11CF11C0E5F1F4F20E030E0FAE0C4
:1001D000EF16F10441F0A901440F551F4C0D5D1DB0
:1001E00060E070E0DDCF35BA1A96AA0FBB1FAC0DE8
:1001F000BD1D8C9182BBC5010197F1F7A0E0B0E075
:100200008D01000F111F0C0D1D1DEE24FF24E3CFE7
:04021000F894FFCF90
:100214003F0006005B004F0066006D007D00070094
:040224007F006F00E8
:00000001FF
