:100000000C942A000C9434000C9434000C943400AA
:100010000C9434000C9434000C9434000C94340090
:100020000C9434000C9434000C9434000C94340080
:100030000C9434000C9434000C9434000C94340070
:100040000C9434000C9434000C9434000C94340060
:100050000C94340011241FBECFE5D4E0DEBFCDBF29
:100060000E943B000C9476000C94000083B78560DE
:1000700083BF12BE089584E084BB8FE087BB83B743
:10008000856083BF12BE59E04CE033E026E09A9BC6
:10009000FECF82B790E0059714F048BB12BE82B73E
:1000A00090E08936910514F038BB12BE82B790E01B
:1000B000059714F028BB12BE82B758BB12BE82B798
:1000C00090E0059714F058BB12BE82B790E08936D5
:1000D000910514F028BB12BE82B790E0059714F08A
:1000E00038BB12BE82B748BB12BED1CFF894FFCF47
:00000001FF
