:0C0000000C9445000C9400000C940000CF
:10000C000C9400000C94A3000C9400000C940000C1
:10001C000C9400000C9400000C9400000C94000054
:10002C000C9400000C9400000C9400000C94000044
:10003C000C9400000C9400000C9400000C94000034
:10004C000C9400000C9400001027E80364000A00D4
:10005C00010000100001100001000000000025301C
:10006C0032643A253032643A25303264000080C064
:10007C00040004006600020071017A000000F8948C
:10008C00EE27ECBBF1E0FBBFEBBFE5BF8DE0A2E0E0
:10009C00BB27ED938A95E9F780E094E0A0E6ED9319
:1000AC000197E9F7ECE7F0E085919591009761F005
:1000BC00A591B59105901590BF01F00105900D9299
:1000CC000197E1F7FB01F0CFEFE5EDBFE4E0EEBF08
:1000DC00C0E6D1E00C949100E0E6F1E0FA93EA93EB
:1000EC00EAE6F0E0FA93EA93E72D0E941A03E42D76
:1000FC000E941A03E52D0E941A038CE00E94410213
:10010C006096E0E0EA93A0E00E949502A0E6B1E0E0
:10011C000E94C3020895A0E10E94D4020E94A20290
:10012C00E0E4E9BFE8BF7894E8E0E2BDE0E0E4BDDC
:10013C00E5E0E5BDD1DFFFCFFFCF0A921A92FA922C
:10014C006A937A938A939A93AA93BA93EA93FA93BB
:10015C00EFB7EA935394ECE3E51551F4552443942B
:10016C00E41531F444247394E8E1E71509F4772499
:10017C00B3DFE991EFBFF991E991B991A991999107
:10018C00899179916991F990199009901895BA9380
:10019C00AA931A930A93AA81BB8112960E946B03AD
:1001AC00309759F1AA81BB8114960E946B038F0181
:1001BC00309761F00230E0E01E0798F0F8013197BB
:1001CC008F01AA81BB811496ED93FC93AA81BB810C
:1001DC001296ED91FD913196FE93EE933197AC8191
:1001EC00A083AA81BB810E946B03FF232AF0ED91AF
:1001FC00FD913196FE93EE9306C0AA81BB81EFEF81
:10020C00FFEFED93FC931981088125960895BA931D
:10021C00AA9326970E94780310E0AC85BD85E0E098
:10022C00F0E0ED93FC93EA89FB893196EA8BFB8B2A
:10023C003197E4912E2FE03009F415C1E12FE03015
:10024C0039F4253211F411E002C00E9420030AC1D6
:10025C00E130A9F4253219F40E94200302C112E006
:10026C0040E000E02D3211F401E0FCC02B3211F41F
:10027C004BE2F8C0203211F440E2F4C002C0E2308C
:10028C0039F450E013E0203311F40068EBC003C0E4
:10029C00E33009F0E7C0203310F02A3308F007C030
:1002AC00AAE05A9F502DE22FE0535E0FDBC0E22FE5
:1002BC00E33649F40E942703E889F989A481AA93BB
:1002CC000E942D03CEC0E33741F40E9427030E9405
:1002DC0033030E9401031E2F0AC0E03761F40E9411
:1002EC0027030E9433030E940D031E2F0860026037
:1002FC000F7730E034C0E43611F0E93611F40460C5
:10030C0002C0E53731F4E4E5F0E0EE83FF8315E05D
:10031C000CC0E83511F4086003C0E83709F0A1C03F
:10032C00EEE5F0E0EE83FF8314E002FF14C00E94C0
:10033C0027030E943D03AB85AA233AF4EA85FB858B
:10034C000E946703EA87FB874DE2403011F01F5F84
:10035C0001C00B7F04C00E9427030E943D0300FDD7
:10036C0011C0151778F407FF08C002FF04C00B7FFB
:10037C00242F115001C020E301C020E20E94200371
:10038C005150EFCF312F01FF17C03030A1F003FFD8
:10039C0006C0EE81FF812591EE83FF8305C0AE81FF
:1003AC00BF812D91AE83BF830E942003503009F092
:1003BC0051503150EACF4BC020E3EE81FF810E94B7
:1003CC006F03E887F987EE81FF813296EE83FF8316
:1003DC00E885F985AA85BB85AE17BF0750F02F5F5E
:1003EC00A885B985EA85FB85EA1BFB0BEA87FB87A9
:1003FC00EFCF2A3328F003FF02C0295F01C0295D2B
:10040C0004FD1AC0213320F4A885B985119709F48D
:10041C0009C0531710F000FF01C013C020E207FF02
:10042C000BC020E3006102FF07C00B7F4A930E94C0
:10043C002D03503009F051500E942003503009F028
:10044C0051503150A885B985129708F0B5CF00FFEF
:10045C0008C0503031F05150E0E2EA930E942D0375
:10046C00F8CF10E0E0CEAC85BD850E946B030E94F6
:10047C007F0364960895FF92F82E26970E947A03C4
:10048C000E944503309719F4EFEFFFEF23C0DE0114
:10049C0016960E9463038D010E944503EE83FF8331
:1004AC00E0E0E887E987DE011A960E9463030E9468
:1004BC006B03FA93EA931A930A93EDECF0E0FA9338
:1004CC00EA93DE011A96A3DE9F01AE81BF81E0E0C4
:1004DC00EC93F9010E9481032A96FF900895AA9348
:1004EC00EBB3EF70AE2FE881E07FEA2BEBBB82E041
:1004FC008A95F1F7DA9A82E08A95F1F7DA9882E038
:10050C008A95F1F776C0AA93A881E9DFE881E29594
:10051C00E883A881E4DF81E18A95F1F76AC0AA93A8
:10052C00E881F0E0EF58FE4FE081A981AE0FEBDFE0
:10053C006980988022960895A2E00E944C03ACE05A
:10054C00E2DFA1E00E944C03E0E09E2E6E2E0895A7
:10055C00AA93A881AA3011F0681448F0E0E0EA935D
:10056C009394A92DDCDFA881AA3009F442C06394CE
:10057C00D89AA881C8DFD8983CC0BA93AA931A938A
:10058C00A981BA81ED91A983BA831E2FE03019F0AD
:10059C00A12FDEDFF5CF188123960895AA93EAB335
:1005AC00E06FEABBD29AD09AD19ADA98D898D998B7
:1005BC008880E881E058E0937301E881E054E0938F
:1005CC007401A4E1B0E00E9459030E9452030E94FE
:1005DC0052030E945203A0E282DF81E28A95F1F776
:1005EC00A8E291DFA4E08FDFA5E88DDFA6E08BDF2A
:1005FC00A3DF21960895BA93AA93A991B991EE27F6
:10060C00FF276D91662311F03196FBCF0895BA93B5
:10061C00AA93AA27BB27E991F9910590002011F024
:10062C001196FBCFFD010895FF27662777270E94BF
:10063C00730308952A93AD85BE85EF85F8890995D6
:10064C000895E889F9893497E88BF98B0895AD857D
:10065C00BE85EF85F88909950895A889B9891496FE
:10066C000E946B03EE83FF83AE81BF810895A8893E
:10067C00B98914960E946B03EA87FB870895DE0103
:10068C001C960E9463030E946B0308950E948902CA
:10069C00A3E0B0E00C945903A0E30E94750281E240
:1006AC008A95F1F70895109639F08AEF90E001974A
:1006BC00F1F7A8951197C9F708950024AF0DB01D57
:1006CC000895F195E195F0400895ED91FC91119705
:1006DC0008950590F491E02D08957A936A93FA9316
:1006EC00EA9308955A934A933A932A931A930A9346
:1006FC0008955D814C813B812A811981088108957F
:00000001FF
