:100000000C942A000C9434000C9434000C943400AA
:100010000C9434000C9434000C9434000C94340090
:100020000C9434000C9434000C9434000C94340080
:100030000C9434000C9434000C9434000C94340070
:100040000C9434000C9434000C9434000C94340060
:100050000C94340011241FBECFE5D4E0DEBFCDBF29
:100060000E943B000C9475000C94000083B78560DF
:1000700083BF12BE089584E084BB8FE087BB83B743
:10008000856083BF12BE49E036E023E09CE09A9B86
:1000900014C082B7853010F098BB12BE82B785308D
:1000A00010F028BB12BE82B7853010F038BB12BEEC
:1000B00082B7853060F348BB16C083B3882339F715
:1000C00082B7853010F048BB12BE82B7853010F081
:1000D00038BB12BE82B7853010F028BB12BE82B783
:0E00E0008530A8F298BB12BED2CFF894FFCFA5
:00000001FF
