:100000000C942A000C9447000C9447000C94470071
:100010000C9447000C9447000C9447000C94470044
:100020000C9447000C9447000C9447000C94470034
:100030000C9447000C9447000C9447000C94470024
:100040000C9447000C9447000C9447000C94470014
:100050000C94470011241FBECFE5D4E0DEBFCDBF16
:1000600010E0A0E6B0E0E2EEF0E002C005900D92F4
:10007000A437B107D9F710E0A4E7B0E001C01D92A2
:10008000A637B107E1F70E9457000C946F000C945B
:1000900000008EB58C608EBD1DBC1CBC82E19AE751
:1000A0009BBD8ABD89B7806189BF789408958FEF21
:1000B00081BB0E94490029E130E0A0E6B0E00AC01F
:1000C0008C9182BB88E893E1F9013197F1F70197B0
:1000D000D9F7129680E0A437B80779F3F1CFF894F6
:0200E000FFCF50
:1000E2003F0006005B004F0066006D007D000700C8
:0400F2007F006F001C
:00000001FF
